:100000000C9463000C948B000C948B000C948B006C
:100010000C948B000C948B000C948B000C948B0034
:100020000C948B000C948B000C948B000C948B0024
:100030000C948B000C948B000C948B000C948B0014
:100040000C948B0C0C948B000C94810A0C94B30AC6
:100050000C948B000C948B000C948B000C948B00F4
:100060000C94A4040C948B001E022102270224028B
:1000700027022A022D02300233020000000800028B
:10008000010000030407000000000000000001025E
:100090000408102040800102040810200102040816
:1000A00010200404040404040404020202020202F4
:1000B00003030303030300000000250028002B00B6
:1000C0008C02BA03E30A11241FBECFEFD8E0DEBFD3
:1000D000CDBF16E0A0E0B1E0E4E7FAE102C0059090
:1000E0000D92A631B107D9F727E0A6E1B6E001C02D
:1000F0001D92AC38B207E1F710E0C6ECD0E004C0C6
:100100002297FE010E94340DC03CD107C9F70E941E
:100110007C0C0C94380D0C940000382FDB01FC0192
:100120002E2F231B241758F42D91222341F0293818
:1001300010F42F5401C0285420833196F1CFFC01D4
:10014000E40FF11D108208950097C1F0DC012CEC42
:100150003BEE415051096109710970F0922F8827D7
:10016000ED91E327F0E0EE0FFF1FE25EFE4F2081EE
:10017000318128273927EDCFC90108958FEF9FEFEF
:100180000895CF92DF92EF92FF920F931F93CF9338
:10019000DF938B0169017A01EC0180E00C1B1D0BE0
:1001A000A8014C0F5D1FC114D104E104F10461F0FA
:1001B000BE0186E196E00E94A607219691E0C91A49
:1001C000D108E108F108ECCFDF91CF911F910F9199
:1001D000FF90EF90DF90CF900895CF92DF92EF9253
:1001E000FF920F931F93CF93DF9369017A01EB0185
:1001F00020E08C01061B170BBE01600F711FC1149C
:10020000D104E104F10461F0499186E196E00E9495
:100210004907282F81E0C81AD108E108F108ECCF7E
:10022000822FDF91CF911F910F91FF90EF90DF9080
:10023000CF900895222321F0262FDC01FB010AC074
:100240000C948D008D9190ED980F9A3040F4815B65
:10025000808331968E2F821B8417A0F302C0885BA7
:10026000F7CFFB01E40FF11D10820895CF93DF93C8
:10027000EC014EE050E060E070E00E94A4009F8737
:100280008E8720E130E040E050E0BE018DEA97E04B
:10029000DF91CF910C94ED00CF93DF93CDB7DEB714
:1002A0006F970FB6F894DEBF0FBECDBF88E089838D
:1002B000E0E0F1E0DE01129681918D9381E0EE3075
:1002C000F807D1F721E04EE0BE016E5E7F4FCE0110
:1002D00002960E941A01FE017296CE018096DE01FE
:1002E000129621912D93E817F907D9F74FE050E0C6
:1002F00060E070E0CE0101960E94A400998B888B8B
:1003000021E130E040E050E0BE016F5F7F4F82EEC0
:1003100097E00E94ED006F960FB6F894DEBF0FBE17
:10032000CDBFDF91CF910895EF92FF920F931F936E
:10033000CF93DF93CDB7DEB7A5970FB6F894DEBFA6
:100340000FBECDBF1DA21CA21BA21AA219A218A2E9
:1003500026E040E052EC61E070E086EE96E00E941C
:100360001F0A86E296E00E94270386E196E00E943B
:100370008E086EE173E086EE96E00E94710BAE018E
:100380004C5D5F4F61E086E196E00E94E3056DE21F
:1003900073E086EE96E00E94640B6CA17DA140E1C3
:1003A00050E086EE96E00E94650CAE014E5D5F4F18
:1003B00063E086E196E00E94E3056DE373E086EE7C
:1003C00096E00E94640B6AA17BA140E150E086EEBA
:1003D00096E00E94650C7E0180E2E80EF11CA70108
:1003E00064E086E196E00E94E3056CE473E086EE4B
:1003F00096E00E94640B68A179A14AE050E086EE85
:1004000096E00E94650C65E573E086EE96E00E943A
:10041000710B21E130E040E050E0BE016F5F7F4FA3
:1004200082EE97E00E94C100898190E089309105B9
:1004300000F5FC01EC5CFF4F0C94320D62E773E0B9
:1004400014C068E773E011C064E873E00EC06EE7A3
:1004500073E00BC06AE873E008C060E973E005C0B0
:1004600066E973E002C06CE973E086EE96E00E94F4
:10047000710B4EE0BE016E5E7F4FCE0102960E9470
:100480008D008E010E5E1F4FF80161918F014AE0D1
:1004900050E086EE96E00E94410C0E151F05A1F774
:1004A00062EA73E086EE96E00E94710B0E944C01B6
:1004B000811103C065EB73E002C065ED73E086EE69
:1004C00096E00E94710B6FEE73E086EE96E00E945C
:1004D000710B8EE091E00E943601811103C066E04D
:1004E00074E002C06EE274E086EE96E00E94710B4A
:1004F00060E574E086EE96E00E94710BA5960FB65B
:10050000F894DEBF0FBECDBFDF91CF911F910F9149
:10051000FF90EF900895089586E196E00C94D80539
:100520008091560690E020915706821B910908950C
:100530002091570680915606281750F4E22FF0E0DC
:10054000E85AF94F808190E02F5F20935706089575
:100550008FEF9FEF0895E091570680915606E817B8
:1005600030F4F0E0E85AF94F808190E008958FEF81
:100570009FEF08950895CF92DF92EF92FF920F932D
:100580001F93CF93DF937C01CB018A012091320628
:10059000222389F0EB016B01C40ED51ECC15DD05BD
:1005A00069F06991D701ED91FC910190F081E02D06
:1005B000C7010995F3CF642F0E947B04C801DF9126
:1005C000CF911F910F91FF90EF90DF90CF90089502
:1005D000CF93DF931F92CDB7DEB7698320913206A8
:1005E0002223D1F020913306203240F021E030E088
:1005F000FC013383228380E090E015C080913406B3
:10060000E82FF0E0EB5CF94F998190838F5F809346
:1006100034068093330605C061E0CE0101960E9446
:100620007B0481E090E00F90DF91CF910895FC0171
:100630001382128248EE53E060E070E044835583F9
:10064000668377838BE794E091838083089510928B
:1006500057061092560610923406109233060C94E8
:10066000BE0381E0809332066093550610923406F3
:100670001092330608950C9431030F93062F21E056
:100680004091330665E376E0809155060E9424048C
:100690001092340610923306109232060F9108958C
:1006A0008F929F92AF92BF92CF92DF92EF92FF9282
:1006B0000F931F93CF93DF93EC01F62ED42E4801B6
:1006C0005901EE2019F10E9431031E2D143008F05B
:1006D00013E01150B8F0E881F98128E0129FB001D1
:1006E0001124A501940104C0569547953795279587
:1006F0006A95D2F7CA01B9010190F081E02DCE01CF
:100700000995E7CF60E0CE010E943D034D2D4132B7
:1007100008F040E22C2D68E576E08F2D0E94DC0386
:100720001092570680935606DF91CF911F910F913B
:10073000FF90EF90DF90CF90BF90AF909F908F9001
:100740000895CF92EF920F931F93C22EE12C00E0F9
:1007500010E098010E9450031F910F91EF90CF90ED
:10076000089521E00C94A10321E00C94A10361E021
:100770000C943D0386E296E00C9417031092E50674
:1007800081E08093E3061092E20661E082E10E943C
:10079000060961E083E10E940609E9EBF0E080814F
:1007A0008E7F808380818D7F808388E48093B800F2
:1007B00085E48093BC000895413208F043C09091D5
:1007C000E5069111FCCF91E09093E5062093E306B6
:1007D0002FEF209378061092BD06240F2093BC06BD
:1007E0009093E4069091E406880F892B8093E406A9
:1007F0008091E206813061F41092E2068091E40675
:100800008093BB008091BC0083FDF8CF85EC01C0D4
:1008100085EE8093BC008091E5068130E1F3809104
:10082000BD06841710F44091BD062EEB36E0FB01A7
:10083000D9018A2F821B841718F48D918193F9CFE7
:10084000842F089580E008950F93413208F04AC044
:100850009091E5069111FCCF92E09093E50600930C
:10086000E3069FEF909378061092BD064093BC0676
:10087000FB016EEB76E0DB019A2F961B941718F4C0
:1008800091919D93F9CF1092E4069091E406880F20
:10089000892B8093E4068091E206813061F4109206
:1008A000E2068091E4068093BB008091BC0083FD4A
:1008B000F8CF85EC01C085EE8093BC00222321F0A7
:1008C0008091E5068230E1F3809178068F3F61F0F8
:1008D00080917806803251F080917806803341F41F
:1008E00083E007C081E005C080E003C082E001C072
:1008F00084E00F910895613298F42091E506243048
:1009000089F460939A06FC018CE996E0DC012A2FB9
:10091000281B261718F421912D93F9CF80E0089514
:1009200081E0089582E0089585ED8093BC00809178
:10093000BC0084FDFCCF1092E506089585EC809301
:10094000BC001092E50608951F920F920FB60F9209
:1009500011242F933F934F935F936F937F938F93C4
:100960009F93AF93BF93EF93FF938091B900887FDC
:10097000803609F49EC078F5883209F45DC090F4A1
:10098000803109F456C038F4882309F4F5C0883062
:1009900009F44FC0F5C0883109F44EC0803209F423
:1009A0005FC0EEC0803409F46AC058F4803309F4A3
:1009B00057C0883309F0E4C0809378060E949E04F3
:1009C000DFC0803509F44FC0883509F45DC0883434
:1009D00009F0D6C0D3C0883909F4C4C0A8F4883758
:1009E00009F467C038F4883609F463C0803709F425
:1009F00060C0C6C0883809F4B5C0803909F45FC04A
:100A0000803809F0BDC05BC0803B09F483C038F476
:100A1000803A09F466C0883A09F47CC0B1C0803CD1
:100A200009F4A4C0883C09F4A1C0883B09F487C03C
:100A3000A7C08091E40610C09091BD068091BC06CD
:100A4000981770F5E091BD0681E08E0F8093BD068A
:100A5000F0E0E254F94F80818093BB0085EC83C0C5
:100A6000809378068BC0E091BD0681E08E0F809365
:100A7000BD068091BB00F0E0E254F94F8083909175
:100A8000BD068091BC066BC0E091BD0681E08E0F73
:100A90008093BD068091BB00F0E0E254F94F808363
:100AA0008091E30681116AC081E08093E20684EAC6
:100AB0005EC083E08093E50610927906CFCF8091E7
:100AC0007906803208F04EC0E091790681E08E0F01
:100AD000809379068091BB00F0E0E658F94F80835F
:100AE000BDCF0E949E0480917906803230F4E0915F
:100AF0007906F0E0E658F94F10826091790670E0CF
:100B0000E091DE06F091DF068AE796E00995109203
:100B1000790636C084E08093E50610929B06109219
:100B20009A06E091E006F091E106099580919A0617
:100B3000811105C081E080939A0610929C06E09195
:100B40009B0681E08E0F80939B06F0E0E456F94F00
:100B500080818093BB0090919B0680919A069817A4
:100B600008F47CCF85E88093BC000AC085EC8093B4
:100B7000BC001092E50604C0109278060E9494040E
:100B8000FF91EF91BF91AF919F918F917F916F9165
:100B90005F914F913F912F910F900FBE0F901F903B
:100BA0001895DC01ED91FC910190F081E02D099404
:100BB000FC011182128280E580838DE090E09687AF
:100BC000858717860895DC01FA01623089F038F4D0
:100BD0006130D9F413968D919C9114970DC06330B8
:100BE00079F0643091F419968D919C911A9704C014
:100BF00015968D919C9116979183808380E008953E
:100C000017968D919C911897F7CF1182108285E0ED
:100C10000895FC0182818823E9F1818592858038DD
:100C2000910511F158F480319105B1F080349105AE
:100C3000C1F00497F9F480E092E010C0811522E041
:100C40009207A9F0811524E0920789F0811591405F
:100C500089F480E090E802C080E098E09487838780
:100C60000BC080E090E2FACF80E090E4F7CF8FEF06
:100C70009FEFF4CF1486138680E09FE090878783F0
:100C8000968385839483838383859485892B21F040
:100C900080E008958AE0089587E00895CF93DF9378
:100CA000EC0167E874E086EE96E00E94710B6DE25D
:100CB00073E086EE96E00E94640B6B817C8140E1DC
:100CC00050E086EE96E00E94650C67E974E086EEDF
:100CD00096E00E94640B6D817E8140E150E086EEDB
:100CE00096E00E94650C64EA74E086EE96E00E944D
:100CF000640B6F81788540E150E086EE96E00E94BB
:100D0000650C6CE473E086EE96E00E94640B6985E6
:100D10007A854AE050E086EE96E00E945F0C64EB34
:100D200074E086EE96E00E94710B8B819C818115A8
:100D30009F4051F089859A85892B31F066EB74E0EC
:100D400086EE96E00E94710B8B819C8181159F40FD
:100D500051F489859A85892B31F065ED74E086EE32
:100D600096E00E94710B6BEE74E086EE96E00E94B6
:100D7000710B80E0DF91CF910895EF92FF920F9376
:100D80001F93CF93DF93EC018B0189859A8528818E
:100D90008430910541F0409751F4812F8770287F6E
:100DA000822B888305C010FB20F9288301C0F22E16
:100DB00060E075E086EE96E00E94640B40E150E052
:100DC0006F2D86EE96E00E94480C89859A85780101
:100DD000FF2468818034910528F486E296E00E9421
:100DE00031030AC086E296E00E943103612F70E071
:100DF00086E296E00E94D105B70186E296E0DF9197
:100E0000CF911F910F91FF90EF900C94D105EF922D
:100E1000FF920F931F93CF93DF9300D0CDB7DEB730
:100E2000142FFC01A385B4856A177B0740F5FB01ED
:100E3000E40FF11D3197EA17FB0708F529833A8380
:100E40000E94BD062981022FE22E3A81F32E8E2DBB
:100E5000801B811740F4F70161917F0186E296E0E3
:100E60000E94E802F4CF86E296E00F900F90DF91A7
:100E7000CF911F910F91FF90EF900C94B7038BE0EF
:100E80000F900F90DF91CF911F910F91FF90EF90F6
:100E90000895CF93DF931F92CDB7DEB749839E01AC
:100EA0002F5F3F4F41E00E9407070F90DF91CF91E6
:100EB0000895CF92DF92FF920F931F93CF93DF930A
:100EC00000D0CDB7DEB76C01142FDC011B96ED917D
:100ED000FC911C976E177F0770F5CB01840F911D55
:100EE00001978E179F0738F5442311F1C601298316
:100EF0003A830E94BD0686E296E00E94B703082F5F
:100F0000412FF601608186E296E00E94B1032981BB
:100F1000F22EC22E3A81D32E8C2D8F19811748F4D0
:100F200086E296E00E949802D6018D936D01F4CF7F
:100F300008E0802F01C08BE00F900F90DF91CF91E0
:100F40001F910F91FF90DF90CF9008950F931F9303
:100F5000CF93DF931F92CDB7DEB78A019E012F5F3B
:100F60003F4F41E00E9459079981F80190830F900B
:100F7000DF91CF911F910F910895DF92EF92FF9231
:100F80000F931F93CF93DF93EC016CE770E086E241
:100F900096E00E943B036881660F86E296E00E941D
:100FA000E80260E086E296E00E943D03D82E43E02E
:100FB00050E06CE770E086E296E00E94B40386E2BF
:100FC00096E00E9498027C0186E296E00E949802D8
:100FD0008C0186E296E00E9498029701332794E004
:100FE000220F331F9A95E1F7A801552764E0559524
:100FF00047956A95E1F7240F351F3C832B830F70CB
:10100000402F50E058874F83542F4427480F511DDD
:101010005E834D832A303105E9F4053009F43FC081
:1010200058F4002381F00330C1F480E490E09A8703
:10103000898780E090E239C00630D1F1073069F449
:1010400080E094E037C084E090E09A87898780E070
:1010500092E02BC02430310549F01A8619861C868F
:101060001B86D1102CC087E0D82E29C00230B9F0E1
:1010700048F4013091F780E890E09A87898780E012
:1010800090E413C00330A1F0043039F720E034E0DD
:101090003A8729872FEF3FEF3C872B8710C080E0EE
:1010A00091E09A87898780E090E89C878B8707C0CA
:1010B00080E092E09A8789878FEF9FEFF6CF8D2DA2
:1010C000DF91CF911F910F91FF90EF90DF900895E6
:1010D000CF93DF93EC018A81882321F0CE010E9417
:1010E000090603C0CE010E94BD07811112C02B81E9
:1010F0003C812A30310531F02430310519F02115B9
:101100003F4039F42B853C85232B19F091E09983DE
:1011100002C0198287E0DF91CF9108951F93CF938A
:10112000DF93EC010E946808182F64E675E086EEF4
:1011300096E00E94710B63E875E086EE96E00E94EF
:10114000640B40E150E0688186EE96E00E94480C16
:1011500069E975E086EE96E00E94640B6D857E85F8
:101160004AE050E086EE96E00E941C0C68EA75E0CA
:1011700086EE96E00E94640B63EC75E086EE96E0E6
:101180000E94710B11110AC069EC75E086EE96E0C1
:101190000E94710BCE010E944E0606C061EE75E002
:1011A00086EE96E00E94710B6BEE74E086EE96E0A0
:1011B000DF91CF911F910C94710B833081F028F453
:1011C000813099F08230A1F008958730A9F08830FD
:1011D000B9F08430D1F4809180008F7D03C080917C
:1011E00080008F7780938000089584B58F7702C048
:1011F00084B58F7D84BD08958091B0008F7703C042
:101200008091B0008F7D8093B00008950F931F935D
:10121000CF93DF931F92CDB7DEB7282F30E0F901CF
:10122000E658FF4F8491F901E257FF4F1491F901FD
:10123000EE55FF4F04910023C9F0882321F0698304
:101240000E94DD086981E02FF0E0EE0FFF1FEA54F5
:10125000FF4FA591B4919FB7F8948C91611103C091
:101260001095812301C0812B8C939FBF0F90DF913C
:10127000CF911F910F910895FC01818D228D90E0F7
:10128000805C9F4F821B91098F7399270895FC0101
:10129000918D828D981731F0828DE80FF11D858D2B
:1012A00090E008958FEF9FEF0895FC01918D828D5E
:1012B000981761F0828DDF01A80FB11D5D968C91AA
:1012C000928D9F5F9F73928F90E008958FEF9FEFB5
:1012D000089589ED9AE0892B49F080E090E0892B10
:1012E00029F00E94D90A81110C9400000895FC0194
:1012F000848DDF01A80FB11DA35ABF4F2C91848D9F
:1013000090E001968F739927848FA689B7892C93D3
:10131000A089B1898C9180648C93938D848D98136E
:1013200006C00288F389E02D80818F7D8083089537
:10133000CF93DF93EC01888D8823C9F0EA89FB897C
:10134000808185FD05C0A889B9898C9186FD0FC073
:101350000FB607FCF5CF808185FFF2CFA889B98948
:101360008C9185FFEDCFCE010E947709E7CFDF9109
:10137000CF910895CF92DF92FF920F931F93CF9357
:10138000DF931F92CDB7DEB76C0181E0D60158968E
:101390008C9358975B969C915B975C968C915C972D
:1013A000981307C05096ED91FC915197808185FD6F
:1013B0002EC0F601038D10E00F5F1F4F0F73112732
:1013C000F02EF601848DF81211C00FB607FCF9CF8C
:1013D000D6015096ED91FC915197808185FFF1CF18
:1013E000C60169830E9477096981EBCF838DE80F7D
:1013F000F11DE35AFF4F6083D6015B960C935B9718
:101400005296ED91FC915397808180620CC0D60179
:101410005696ED91FC91579760835096ED91FC9113
:10142000519780818064808381E090E00F90DF910C
:10143000CF911F910F91FF90DF90CF900895BF92B1
:10144000CF92DF92EF92FF92CF93DF93EC016A018C
:101450007B01B22EE889F98982E08083411581EE13
:10146000580761057105A1F060E079E08DE390E037
:10147000A70196010E94100D21503109410951091F
:101480005695479537952795211580E1380798F0AF
:10149000E889F989108260E874E88EE190E0A7019C
:1014A00096010E94100D21503109410951095695AC
:1014B000479537952795EC85FD853083EE85FF852B
:1014C0002083188EEC89FD89B082EA89FB898081AE
:1014D00080618083EA89FB89808188608083EA89D2
:1014E000FB89808180688083EA89FB8980818F7D88
:1014F0008083DF91CF91FF90EF90DF90CF90BF90EE
:1015000008951F920F920FB60F9211242F938F936D
:101510009F93EF93FF93E091F606F091F706808199
:10152000E091FC06F091FD0682FD12C09081809151
:10153000FF068F5F8F7320910007821751F0E091B3
:10154000FF06F0E0EA51F94F958F8093FF0601C046
:101550008081FF91EF919F918F912F910F900FBEFE
:101560000F901F9018951F920F920FB60F92112493
:101570002F933F934F935F936F937F938F939F939B
:10158000AF93BF93EF93FF9386EE96E00E947709A7
:10159000FF91EF91BF91AF919F918F917F916F914B
:1015A0005F914F913F912F910F900FBE0F901F9021
:1015B000189586EE96E00E943C0921E0892B09F4FB
:1015C00020E0822F08951092E9061092E80688EE36
:1015D00093E0A0E0B0E08093EA069093EB06A0933E
:1015E000EC06B093ED068BEF95E09093E7068093C1
:1015F000E60685EC90E09093F3068093F20684EC87
:1016000090E09093F5068093F40680EC90E0909340
:10161000F7068093F60681EC90E09093F9068093AC
:10162000F80682EC90E09093FB068093FA0686EC35
:1016300090E09093FD068093FC061092FF061092B6
:10164000000710920107109202070895CF92DF92CF
:10165000EF92FF920F931F93CF93DF937C016A0168
:10166000EB0100E010E00C151D0571F06991D70148
:10167000ED91FC910190F081E02DC7010995892B36
:1016800019F00F5F1F4FEFCFC801DF91CF911F916E
:101690000F91FF90EF90DF90CF9008956115710545
:1016A00081F0DB010D900020E9F7AD0141505109B7
:1016B000461B570BDC01ED91FC910280F381E02D7C
:1016C000099480E090E008950C944E0BDC01ED91BC
:1016D000FC910190F081E02D099467E076E00C9494
:1016E0004E0B0F931F93CF93DF93EC010E944E0B91
:1016F0008C01CE010E946D0B800F911FDF91CF9165
:101700001F910F9108958F929F92AF92BF92DF9297
:10171000EF92FF920F931F93CF93DF93CDB7DEB776
:10172000A1970FB6F894DEBF0FBECDBF7C01F42F9A
:10173000D52ECB0119A2223008F42AE08E010F5DCC
:101740001F4F822E912CA12CB12C6F2F7D2DA50126
:1017500094010E94100DF22FD32ECA0101501109DD
:101760006A3014F4E0E301C0E7E3E60FD801EC933C
:10177000232B242B252B49F7B801C7010E944E0BC0
:10178000A1960FB6F894DEBF0FBECDBFDF91CF910B
:101790001F910F91FF90EF90DF90BF90AF909F90BF
:1017A0008F900895CF92DF92EF92FF920F931F9345
:1017B000CF93DF93EC016A017B012115310579F4A8
:1017C000E881F9810190F081E02D642FDF91CF91C4
:1017D0001F910F91FF90EF90DF90CF9009942A30E6
:1017E0003105E9F477FF1AC06DE20E94660B8C01A7
:1017F00044275527BA014C195D096E097F092AE073
:10180000CE010E94830B800F911FDF91CF911F911A
:101810000F91FF90EF90DF90CF9008952AE0B701ED
:10182000A601CE01DF91CF911F910F91FF90EF9014
:10183000DF90CF900C94830B0F931F93CF93DF9384
:10184000EC019A01AB01662757FD6095762F0E9447
:10185000D20B8C01CE010E946D0B800F911FDF9186
:10186000CF911F910F9108952115310541F4DC01AD
:10187000ED91FC910190F081E02D642F09940C947E
:10188000830B9A01462F50E060E070E00C94340C1A
:101890000F931F93CF93DF93EC019A01462F50E0F3
:1018A00060E070E00E94340C8C01CE010E946D0B50
:1018B000800F911FDF91CF911F910F9108959A0191
:1018C000AB0160E070E00C94340C0F931F93CF9346
:1018D000DF93EC019A01AB0160E070E00E94340CF0
:1018E0008C01CE010E946D0B800F911FDF91CF9173
:1018F0001F910F91089508950E94D50C0E947B0CB2
:101900000E949401C9E6D9E00E948B022097E1F37E
:101910000E946909F9CF1F920F920FB60F921124FE
:101920002F933F938F939F93AF93BF93809184079F
:1019300090918507A0918607B09187073091830722
:1019400023E0230F2D3720F40196A11DB11D05C002
:1019500026E8230F0296A11DB11D209383078093D3
:10196000840790938507A0938607B093870780919B
:10197000880790918907A0918A07B0918B070196FB
:10198000A11DB11D8093880790938907A0938A07B2
:10199000B0938B07BF91AF919F918F913F912F9102
:1019A0000F900FBE0F901F901895789484B58260A9
:1019B00084BD84B5816084BD85B5826085BD85B5F3
:1019C000816085BDEEE6F0E0808181608083E1E8A2
:1019D000F0E01082808182608083808181608083DA
:1019E000E0E8F0E0808181608083E1EBF0E08081DD
:1019F00084608083E0EBF0E0808181608083EAE7AF
:101A0000F0E0808184608083808182608083808137
:101A1000816080838081806880831092C1000895F6
:101A2000A1E21A2EAA1BBB1BFD010DC0AA1FBB1FE2
:101A3000EE1FFF1FA217B307E407F50720F0A21B54
:101A4000B30BE40BF50B661F771F881F991F1A94C1
:101A500069F760957095809590959B01AC01BD01EB
:101A6000CF010895EE0FFF1F0590F491E02D09942A
:041A7000F894FFCF18
:101A74005249474F553132333435363738390200FD
:101A8400FFFFFFFFFF0200FFFFFFFFFF000000005A
:101A94002110422063308440A550C660E77008815D
:101AA40029914AA16BB18CC1ADD1CEE1EFF13112D4
:101AB400100273325222B5529442F772D6623993AD
:101AC40018837BB35AA3BDD39CC3FFF3DEE3622424
:101AD400433420040114E664C774A44485546AA5FD
:101AE4004BB528850995EEE5CFF5ACC58DD55336B4
:101AF400722611163006D776F6669556B4465BB74D
:101B04007AA719973887DFF7FEE79DD7BCC7C44883
:101B1400E5588668A7784008611802282338CCC99C
:101B2400EDD98EE9AFF9488969990AA92BB9F55A13
:101B3400D44AB77A966A711A500A333A122AFDDBEC
:101B4400DCCBBFFB9EEB799B588B3BBB1AABA66CE3
:101B5400877CE44CC55C222C033C600C411CAEED3C
:101B64008FFDECCDCDDD2AAD0BBD688D499D977EF3
:101B7400B66ED55EF44E133E322E511E700E9FFF8C
:101B8400BEEFDDDFFCCF1BBF3AAF599F788F889142
:101B9400A981CAB1EBA10CD12DC14EF16FE1801026
:101BA400A100C230E3200450254046706760B98329
:101BB4009893FBA3DAB33DC31CD37FE35EF3B10276
:101BC4009012F322D2323542145277625672EAB539
:101BD400CBA5A89589856EF54FE52CD50DC5E234C6
:101BE400C324A01481046674476424540544DBA709
:101BF400FAB79987B8975FE77EF71DC73CD7D32616
:101C0400F2369106B01657667676154634564CD998
:101C14006DC90EF92FE9C899E9898AB9ABA9445865
:101C2400654806782768C018E1088238A3287DCB68
:101C34005CDB3FEB1EFBF98BD89BBBAB9ABB754AB5
:101C4400545A376A167AF10AD01AB32A923A2EFDF8
:101C54000FED6CDD4DCDAABD8BADE89DC98D267C05
:101C6400076C645C454CA23C832CE01CC10C1FEF48
:101C74003EFF5DCF7CDF9BAFBABFD98FF89F176E55
:101C8400367E554E745E932EB23ED10EF01E5374C2
:101C9400617274696E672E2E2E2E2E2E004D616E8B
:101CA4007566616374757265722030780044656E80
:101CB40073697479436F64652030780044656E738A
:101CC40069747920005265616420796F7572206DA2
:101CD400616368696E6520696E666F2E2E2E2E2EE6
:101CE4002E004447383131004447383231004447EC
:101CF40038333100444738313200444738333200F6
:101D0400444739353200444739373200444739397A
:101D140032004368616E6765204D6F64656C2E2EDA
:101D24002E2E2E2E004368616E6765206D6F6465EC
:101D34006C207375636365737366756C6C792E2E92
:101D44002E2E2E2E004368616E6765206D6F6465CC
:101D54006C206661696C65642E2E2E2E2E2E004337
:101D640068616E6765204C69632053746174652EE5
:101D74002E2E2E2E2E004368616E6765206C6963DB
:101D8400656E736520737461746520737563636530
:101D9400737366756C6C792E2E2E2E2E2E0043686E
:101DA400616E6765206C6963656E73652073746129
:101DB4007465206661696C65642E2E2E2E2E2E00AD
:101DC40046696E69736865642C706C65617365201F
:101DD400656E6A6F7920796F75722044473939329C
:101DE4002E2E2E2E2E2E0000000000E802BB0290A4
:101DF400029802AB02BA024652414D20446576690C
:101E04006365204944730050726F64756374494478
:101E14002030780044656E7369747920636F64655B
:101E2400203078004B0044657669636520696465F9
:101E34006E7466696564206175746F6D617469633D
:101E4400616C6C79004465766963652070726F70AB
:101E540065727469657320736574002E2E2E2E2EA0
:101E64002E202E2E2E2E2E2E202E2E2E2E2E2E00D8
:101E740043616C63756C617465642061646472654C
:101E840073732030780053746172742065726173C7
:101E9400696E6720646576696365004552524F52E6
:101EA4003A206465766963652065726173696E675B
:101EB4002073746F7070656420617420706F73692F
:101EC40074696F6E2000646576696365206572616C
:101ED400736564004652414D5F4D42383552435F4D
:101EE400493243206F626A6563742063726561746A
:101EF40065640049324320646576696365206164E2
:101F040064726573732030780057502070696E20B6
:101F14006E756D6265722000577269746520707207
:101F24006F74656374206D616E6167656D656E7451
:101F34003A200066616C7365004D656D6F7279209F
:101F44004368697020696E697469616C697A656453
:101F5400004D656D6F72792043686970204E4F544F
:101F640020464F554E440000000000BA09260B3CA1
:101F7400095509470998090D0A006E616E00696EDA
:061F840066006F766600A6
:00000001FF
